:020000040800F2
:10000000C03E002045010008D92600088B170008D3
:10001000F7250008450E00087D4600080000000096
:100020000000000000000000000000006133000834
:100030000D0F000800000000D52D00082938000829
:100040005F0100085F0100085F0100085F01000810
:100050005F0100085F0100085F0100085F01000800
:100060005F0100085F0100085F0100085F010008F0
:100070005F0100085F0100085F0100085F010008E0
:100080005F0100085F0100085F0100085F010008D0
:100090005F0100085F0100085F0100085F010008C0
:1000A0005F0100085F0100085F0100085F010008B0
:1000B0005F0100085F010008953A00085F01000831
:1000C0005F0100085F0100085F0100085F01000890
:1000D0005F01000841410008C94100083942000899
:1000E0005F0100085F0100085F0100085F01000870
:1000F0005F0100085F0100085F0100085F01000860
:100100005F0100085F0100085F0100085F0100084F
:100110005F0100085F0100085F0100085F0100083F
:100120005F0100085F0100085F0100085F0100082F
:10013000DFF80CD000F0ACFD00480047795700080C
:10014000C03E00200648804706480047FEE7FEE71D
:10015000FEE7FEE7FEE7FEE7FEE7FEE7FEE7FEE777
:100160005D38000831010008A0F14101192900D8CB
:100170002030704740EA01039B0703D009E008C91B
:10018000121F08C0042AFAD203E011F8013B00F85C
:10019000013B521EF9D27047D2B201E000F8012BA8
:1001A000491EFBD270470022F6E710B513460A46F7
:1001B00004461946FFF7F0FF204610BD421E12F814
:1001C000013F002BFBD111F8013B02F8013B002B52
:1001D000F9D1704730B505462A460B4612F8010B97
:1001E00013F8014B08B1A042F8D01CB1002802D08E
:1001F0006D1CF1E7284630BDCAB2401E10F8011F41
:100200008A4202D00029F9D100207047421C10F820
:10021000011B0029FBD1801A704710B5002200E0B5
:10022000521C835C8C5CA34201D1002BF8D1D8B264
:10023000E1B2401A10BD10B5044600E0401C03783E
:10024000002BFBD100E0401C521E04D311F8013BEF
:100250000370002BF7D100210170204610BD30B58E
:1002600005460020034600E05B1C934205D2EC5C8F
:10027000C85C201A01D1002CF6D130BD2DE9FF4F0A
:10028000087883B09946FF2805D0491C2D2804D052
:100290000024002008E000200BE00124F9E700EB37
:1002A000800003EB4000491C0B78FF2BF7D104B111
:1002B000404200230293147819461D462D2C01D08C
:1002C0002B2C04D1521C2D2C13D000240294AA46AE
:1002D0001478FF2C0FD00A25A3FB057801FB0581BC
:1002E0004FF0000C03FB0C11521CE3194AEB010107
:1002F000EEE70124EAE7814453EA010002D019F550
:10030000C87F06DA03980021C0E9001107B0BDE8F4
:10031000F08F0025AE4E2F46DFF8B882184600F069
:1003200077FCCDE90001B9F1000002DAC9F100045F
:1003300000E004460023A74A1AEB030B42EB045AE1
:1003400012E0E00707D02A4633463846414600F01F
:10035000ECF9074688462A4633461046194600F00F
:10036000E4F905460E466410002CEAD1DDE90001EF
:10037000B9F1000F5A46534606DA00F0DAFB3A4666
:10038000434600F0D6FB05E000F0CFF93A4643467D
:1003900000F0CBF9029A0AB181F00041039AC2E958
:1003A0000001B3E72DE9FF4F1F468DB0D7E90146A5
:1003B0004FF0FF382E2045464FF000090B90B969E9
:1003C0006D1C0E988847396A824688470028F6D106
:1003D000BAF1FF3F0AD024F4D064002E11DDBAF147
:1003E0002B0F08D0BAF12D0F0BD102E0404611B00F
:1003F0008DE744F48064B9696D1C0E988847824685
:10040000761E6946600501D52D2000E02B208DF871
:10041000000001F1010B0DF1200809E0B9696D1C24
:100420000E98884782460F9844F40074761E056043
:10043000002E02DDBAF1300FF0D00B998A453ED183
:1004400044F0800406E00F99681CA9F1010944F406
:1004500000740860B9696D1C761E0E988847824644
:100460003028F0D02BE00B998A4505D1200603D423
:1004700044F08004761E18E0504604F055FB08B3A3
:100480000DF11301761E44F400748B4508D2AAF1D5
:1004900030000BF8010B200607D5A9F1010003E09D
:1004A000200602D409F101008146A00502D50F996A
:1004B000681C0860B9696D1C0E9888478246002E3A
:1004C000D1DC53E0002E51DDBAF1650F02D0BAF154
:1004D000450F4BD1A00549D5B9696D1C24F4407472
:1004E000761E0E9888478246002E0CDD2B2804D0FD
:1004F000BAF12D0F07D144F48074B9696D1C0E98C0
:1005000088478246761EE00501D52D2100E02B218B
:1005100008F8011BCDF82C8021E00DF12901761E91
:1005200044F4007488450CD2AAF1300010F0FF00AA
:1005300088F8000002D10B99884509D908F1010813
:1005400006E0E00501D5244801E042F20F70814643
:10055000B9696D1C0E98884782460F980560002E79
:1005600004DD504604F0E0FA0028D6D1F9690E986F
:100570008847FF208BF8000088F8000000200690D4
:1005800007904B466A4608A906A8FFF777FEA00524
:1005900002D46FF001002AE714F0240F0AD0E0071C
:1005A00014D1DDE906123868031D3B600068C0E91C
:1005B00000120BE0DDE9060100F04EFB0146E0070A
:1005C00004D13868021D3A600068016028460EE7D1
:1005D000000014400000F03FF1D8FFFF2DE9FE4F6E
:1005E000804681EA0300C00F0C46009021F00041D4
:1005F00023F00045B8EB0200A94105D24046214650
:1006000090461C460B46024623F00040104347D05C
:10061000270DC7F30A00C3F30A510290401A019054
:1006200040286BDAC3F3130040F4801B0098924615
:1006300020B10023D2EB030A63EB0B0B0198594660
:10064000C0F14002504600F078F906460D4650468B
:100650005946019A00F090F910EB0800614100241E
:1006600087EA115284EAE7731A4340D0009A62B3D2
:10067000019A012A4FEA075215DC001B61EB0201C7
:100680004FF0004202EA0752CDE90042001C41F55A
:10069000801132462B4600F0FEF903B0BDE8F08F22
:1006A00040462146F9E7001B61EB0201001C41F5C1
:1006B000801300185B412018A2F5001747EB0301D7
:1006C00040EAD570B6196D4111E06D084FEA360663
:1006D00045EAC0754FEA0752001B61EB0201001C9E
:1006E00041F5801149084FEA300000195141324666
:1006F0002B4603B0BDE8F04F00F0BEB900980122D0
:1007000040000023D0EB020263EBE0730098214627
:100710004FEAE074B8EB000061EB0401E9E783F015
:1007200000435BE781F0004158E72DE9FE4F81EA85
:10073000030404F0004421F0004100944FF0000B4A
:1007400023F0004350EA01045ED052EA03045BD078
:10075000C3F30A54C1F30A552C44A4F2F3340194B0
:10076000A0FB0254C1F3130141F48011C3F313033E
:1007700043F4801301FB024400FB034E840A970AF2
:1007800044EA815447EA8357A4FB076802958D0A1F
:1007900005FB07854FEA932C04FB0C542705029DAB
:1007A0004FEA065847EA1637B5EB08056EEB070C1B
:1007B000870E920E47EA811742EA8312A7FB0201D5
:1007C000B6EB0B0164EB00042B0D43EA0C335E180F
:1007D00044EB1C50DA465146E7FB0201C5F3130413
:1007E0004FEA0B3343EA14534FEA0432019C43EAC5
:1007F0000603A4F10C040294009CCDE900B400F0BF
:100800004AF903B0BDE8F08F00200146F9E770B562
:10081000C1F30A5201F000450024C1F3130140F274
:10082000FF3341F480119A4201DA002070BD40F29A
:1008300033439A42A2F2334203DC524200F08CF876
:1008400000E090402C43F1D0404270BD30B5041E12
:1008500071F1000404DB4FF00044404264EB0101FD
:10086000141E73F1000405DB1C464FF00043524296
:1008700063EB04038B4208BF824230BD30B5041ED7
:1008800071F1000404DB4FF00044404264EB0101CD
:10089000141E73F1000405DB1C464FF00043524266
:1008A00063EB0403994208BF904230BD30B50B465C
:1008B000014600202022012409E021FA02F59D4290
:1008C00005D303FA02F5491B04FA02F52844151E64
:1008D000A2F10102F1DC30BD2DE9F05F05460020F8
:1008E00092469B4688460646814640241BE02846A1
:1008F00041464746224600F02FF853465A46C01A52
:10090000914110D311461846224600F016F82D1AD0
:1009100067EB01084F4622460120002100F00DF848
:1009200017EB00094E41201EA4F10104DFDC48460C
:1009300031462A464346BDE8F09F202A04DB203A90
:1009400000FA02F1002070479140C2F1200320FA22
:1009500003F3194390407047202A04DB203A21FA20
:1009600002F00021704721FA02F3D040C2F12002C8
:100970009140084319467047202A06DBCB17203ADE
:1009800041FA02F043EAE07306E041FA02F3D04094
:10099000C2F120029140084319467047426842B1B3
:1009A000016811F8013B23B1521EC0E9001218463C
:1009B00070470121C160881E704742685AB1C36800
:1009C000016843B983688B4205D0491E521CC0E9B7
:1009D0000012002070474FF0FF3070470FB4002323
:1009E00000B589B00CA900910B996FF00042CB6063
:1009F0001E4B06931E4B07930423CDE901321D4A7B
:100A0000089202466B460020FFF7CCFC09B05DF867
:100A100014FB70B586B006464FF0FF300091CDE96B
:100A20000101002015460C4604903246694604A890
:100A3000FFF7D4FF02460498211825B108B10846F3
:100A400000E020462860049800280DD0002A02DD2E
:100A50000098884208D0081B0094CDE90104324672
:100A6000694604A8FFF7BAFF06B070BD9D090008EB
:100A7000BB090008B50C000810B5141E73F1000482
:100A800008DA401C41F1000192185B411A4301D180
:100A900020F0010010BD2DE9F04D92469B4611B1AA
:100AA000B1FA81F202E0B0FA80F220329046FFF70C
:100AB00044FF04460F4640EA0A0041EA0B01534650
:100AC0005A46084313D0114653EA010019D0C8F121
:100AD00040025046FFF740FF05460E465046594635
:100AE0004246FFF72AFF084305D0012004E02046D4
:100AF0003946BDE8F08D0020054346EAE0762C43F8
:100B000037430A986305E40AA0EB08000022FD0AB7
:100B100044EA47540A3002D500200146E9E70105BE
:100B200010196941DDE9084500196941BDE8F04D3A
:100B3000A2E72DE9F04D81EA030404F0004B21F017
:100B4000004514464FF0000A23F0004150EA050228
:100B500020D054EA01021DD0C5F30A570246C5F35E
:100B60001303C1F31300C1F30A5640F4801543F494
:100B70008013A7EB0608101BD64608F2FD3873EB6E
:100B8000050002D308F1010801E092185B41B8F1B9
:100B9000000F03DA00200146BDE8F08D00204FF47D
:100BA0008011064684460EE0171B73EB050705D33C
:100BB000121B63EB050306434CEA010C49084FEA9C
:100BC000300092185B4150EA0107EDD152EA030070
:100BD00012D082EA040083EA0501084305D0101B05
:100BE000AB4106D20122002306E000224FF0004371
:100BF00002E06FF0010253101AEB06004CEB0851B3
:100C000010EB0A0041EB0B01BDE8F04DFFF734BFDC
:100C10000EB540F2334202920022CDE90022134683
:100C2000FFF739FF03B000BDC1F30A52C1F313014E
:100C300040F2FF3341F480119A4202DA002001466B
:100C4000704740F233439A42A2F2334202DC5242EE
:100C5000FFF782BEFFF771BE01F0004330B421F010
:100C6000004150EA010206D00A0DA2F56072C1F3FC
:100C70001301002A02DC30BC00207047440F44EA14
:100C8000C104C100E01830BC00EBC25000F017B83E
:100C9000064C074D06E0E06840F0010394E80700C9
:100CA00098471034AC42F6D3FFF746FA6863000861
:100CB00088630008C0B24FF4F05100F037B8002943
:100CC000A8BF7047401C490008BF20F001007047D2
:100CD00010B4B0FA80FC00FA0CF050EA010404BF32
:100CE00010BC704749B1CCF1200421FA04F411FA88
:100CF0000CF118BF012121430843A3EB0C01CB1DCC
:100D00004FEA00614FEA102042BF002010BC70473C
:100D100000EBC35010440029A4BF10BC7047401C16
:100D2000490008BF20F0010010BC70477F2801D99E
:100D3000002208E0064A02EB5002C007127800D1F8
:100D4000120902F00F020120904008407047000095
:100D50007062000870B58C1810F8015B15F007037D
:100D600001D110F8013B2A1106D110F8012B03E044
:100D700010F8016B01F8016B5B1EF9D12B0705D44C
:100D80000023521E0DD401F8013BFAE710F8013B95
:100D9000CB1A921C03E013F8015B01F8015B521EB1
:100DA000F9D5A142D8D3002070BD000010B51A4873
:100DB000407B002804DD1848407B401E16494873DC
:100DC0001548007B38BB1448407B20BB1248807A12
:100DD000022820D11048C07A01281CD100200F49D8
:100DE00008600D48C088012804D104F041FA04F0DD
:100DF0000FFC10E00848C088022804D104F071FA02
:100E000004F006FC07E00448C088032803D104F07E
:100E1000A8FA04F0FDFB10BDAC2E00209C812142FD
:100E200010B50446012005490860204604F01CFC6A
:100E300000200349C1F8940110BD000094812142B3
:100E40000080214200BFFEE710B5012000F0ECFC5D
:100E500004463CB12A48007820B92A480470012091
:100E60002749087064B126480078012808DB244827
:100E700000781E2804DC22480078401C20490870B5
:100E800004BB1F48007800281CDD1D4800781E2880
:100E900018DA1C480078012804D002280AD0032858
:100EA0000AD108E01848807A012802D116498872D0
:100EB000087302E001E000E000BF00BF002010491D
:100EC00008701BE0D4B90E4800781E2816DB0D48C8
:100ED0000078012804D0022805D0032809D105E0B4
:100EE00004F0C6F906E004F0FCF903E004F039FA76
:100EF00000E000BF00BF00200149087010BD0000E5
:100F0000140A0020150A0020AC2E002070470000B3
:100F100030B58BB000200790089009900A90012509
:100F2000364B374A37A13DA003F0B2FC07A8002199
:100F300002910391CDE90410084601213C232F4A78
:100F4000CDE900102E492FA000F030FE002843D13B
:100F5000089A91B2079800F03BFAFA2000F000F9E5
:100F60000446002C2FD0204601F0E8FA02282AD1AE
:100F7000204601F0B4F9062820D2DFE800F0030B88
:100F80000F13171B2DA003F083FC00250020304910
:100F9000C87017E02FA003F07BFC13E034A003F02F
:100FA00077FC0FE03BA003F073FC0BE041A003F0E3
:100FB0006FFC07E048A003F06BFC03E051A003F0D6
:100FC00067FC00BF00BF2248C078401C2049C870A1
:100FD00007A800F0D5FC07E01D48C078401C1C495C
:100FE000C8704FA003F054FC1948C078022801DDF6
:100FF00002F01CFC28460BB030BD00001463000852
:10100000D0620008736D61727464657669636526E9
:101010006839736A38467A4A3067790050524F49C6
:10102000443A20257309415549463A20257309441D
:10103000455649443A25730D0A00000054697073FF
:101040003A09C1ACBDD3B3C9B9A60D0A000000006E
:10105000942E00205741524E3A09C1ACBDD3CAA7C5
:10106000B0DCA3BAD0ADD2E9B4EDCEF30D0A0000E6
:101070005741524E3A09C1ACBDD3CAA7B0DCA3BA9E
:10108000B7C7B7A8B5C4636C69656E7469640D0AA7
:10109000000000005741524E3A09C1ACBDD3CAA767
:1010A000B0DCA3BAB7FECEF1C6F7CAA7B0DC0D0A12
:1010B000000000005741524E3A09C1ACBDD3CAA747
:1010C000B0DCA3BAD3C3BBA7C3FBBBF2C3DCC2EB88
:1010D000B4EDCEF30D0A00005741524E3A09C1ACAF
:1010E000BDD3CAA7B0DCA3BAB7C7B7A8C1B4BDD334
:1010F00028B1C8C8E7746F6B656EB7C7B7A8290D6C
:101100000A0000004552523A09C1ACBDD3CAA7B08B
:10111000DCA3BACEB4D6AAB4EDCEF30D0A0000001B
:101120005741524E3A094D5154545F5061636B65BB
:1011300074436F6E6E656374204661696C65640DFF
:101140000A00000010B54FF480710348FFF72BF838
:1011500000200249088010BD94250020EE090020DF
:1011600070B50546002400BF00F054F980B90DA108
:101170000E48FFF72FF8044654B13A212046FFF7F6
:101180003BF8044614B1641C204670BD0020FCE707
:10119000052004F069FA281EA5F101018DB2E3D102
:1011A00000BFF2E74950442C0000000094250020C5
:1011B00000B5A1B0FA2004F057FAFFF7C3FF32A040
:1011C00003F066FB03E04FF4967004F04DFAC8227A
:1011D0002FA130A000F0D4F80028F4D12FA003F004
:1011E00057FB03E04FF4967004F03EFAC82228A1A2
:1011F0002DA000F0C5F80028F4D12FA003F048FB83
:1012000003E04FF4967004F02FFAC82220A12DA01D
:1012100000F0B6F80028F4D12EA003F039FB8021AD
:1012200001A8FEF7C0FF2DA32FA230A101A803F053
:101230003FFB03E04FF4967004F016FAC82231A188
:1012400001A800F09DF80028F4D130A003F020FBA5
:10125000802101A8FEF7A7FF40F25B732EA23AA1FE
:1012600001A803F025FB03E04FF4FA7004F0FCF949
:10127000C8223CA101A800F083F80028F4D13BA0CB
:1012800003F006FB21B000BD41540D0A0000000030
:101290004F4B000041540D0A0D00000043574D4FC5
:1012A00044450D0A0000000041542B43574D4F4464
:1012B000453D310D0A00000041542B43574448433B
:1012C000500D0A0041542B4357444843503D312CA4
:1012D000310D0A0043574A41500D0A003132333470
:1012E00035363738000000004E45540041542B433A
:1012F000574A41503D222573222C222573220D0A84
:1013000000000000474F542049500000434950530B
:10131000544152540D0A0000696F742D30367A30F2
:10132000306178646867666B32346E2E6D717474E8
:101330002E696F746875622E616C6979756E63735E
:101340002E636F6D0000000041542B4349505354ED
:101350004152543D22544350222C222573222C25E5
:10136000640D0A00434F4E4E4543540045535038D8
:1013700032363620496E6974204F4B0D0A0000004A
:101380002DE9F04105460E4614462846FEF73EFF7D
:1013900087B23946284603F063FA0FE000F03AF8C6
:1013A00048B931460948FEF715FF20B1FFF7CAFEDC
:1013B0000020BDE8F0810A2004F056F9201EA4F1B7
:1013C00001018CB2EAD10120F3E70000942500204E
:1013D00030B589B005460C46FFF7B4FE224608A199
:1013E00001A803F065FAC82209A101A8FFF7C8FF08
:1013F00018B92146284603F033FA09B030BD000081
:1014000041542B43495053454E443D25640D0A0039
:101410003E0000000A48008808B9012070470848CB
:10142000008808490988884203D1002004490880BF
:10143000F4E703480088034908800120EEE7000034
:10144000EE090020F0090020044900E0521C11F8C8
:10145000013B002BFAD15008704700002C090020F6
:1014600010B50446062C22D2DFE804F003080D1262
:10147000171C0121084601F0AFFC18E001210220F1
:1014800001F0AAFC13E00121042001F0A5FC0EE00C
:101490000121082001F0A0FC09E00121102001F049
:1014A0009BFC04E00121202001F096FC00BF00BF5E
:1014B00010BD70B504460D4616462046FFF7D0FF16
:1014C00032462946204600F05AF8204600F001F83E
:1014D00070BD3EB50446204602F028FE0546062CA7
:1014E00033D2DFE804F0030B131B232A4FF47A7086
:1014F000ADF804004820ADF8000026E040F2E730E7
:10150000ADF804004720ADF800001EE04FF47A70FB
:10151000ADF804004820ADF8000016E040F2E630D7
:10152000ADF804004620ADF800000EE05920ADF8FB
:1015300004004F20ADF8000007E040F2E730ADF8BE
:1015400004004720ADF8000000BF00BF0020ADF848
:101550000600ADF802008DF808006946284602F042
:1015600093FD0121284602F003FB01221146284683
:1015700002F025FC0021284602F000FB3EBDF8B534
:1015800006460C4615464FF4A06001F0F3F826B16C
:10159000012E06D0022E0CD107E01C208DF8000091
:1015A00007E01D208DF8000003E01E208DF80000EC
:1015B00000BF00BF8DF801408DF8025001208DF86A
:1015C0000300684601F09EF8F8BD2DE9F04102469F
:1015D00000250026002000230024002791F803C0E6
:1015E0000CF00F0591F803C00CF0100CBCF1000FCB
:1015F00003D091F802C04CEA050591F800C0BCF197
:10160000000F31D0146800202BE04FF0010C0CFAD1
:1016100000F3B1F800C00CEA03069E4220D183001B
:101620004FF00F0C0CFA03F7BC4305FA03FC4CEA2D
:10163000040491F803C0BCF1280F06D14FF0010C4F
:101640000CFA00FCC2F814C00AE091F803C0BCF127
:10165000480F05D14FF0010C0CFA00FCC2F810C085
:10166000401C0828D1D31460B1F800C0BCF1FF0FB2
:1016700034DD546800202EE000F1080C4FF0010822
:1016800008FA0CF3B1F800C00CEA03069E4221D11F
:1016900083004FF00F0C0CFA03F7BC4305FA03FC70
:1016A0004CEA040491F803C0BCF1280F05D100F105
:1016B000080C08FA0CF8C2F8148091F803C0BCF1C9
:1016C000480F07D100F1080C4FF0010808FA0CF898
:1016D000C2F81080401C0828CED35460BDE8F081C9
:1016E000F0B50A46002300240021002500F0004642
:1016F000B6F1004F02D11D4EF16901E01B4E716839
:10170000C0F3034583B200F44016B6F5401F08D17C
:1017100021F07061154E766826F07066134F7E607A
:1017200012E000F48016B6F5801F06D1032606FAF3
:1017300005F4A14341F0706106E0460D360103FA5D
:1017400006F6B14341F0706122B1460D360103FA4D
:1017500006F6314300F00046B6F1004F02D1034EC9
:10176000F16101E0014E7160F0BD00000000014038
:101770000246002093680B400BB1012000E00020DE
:101780007047416170470161704700BFFEE700008C
:1017900010B54FF4A06000F0EDFFFFF755FE1E49B5
:1017A000086003F03FFF012200210220FFF781FEC5
:1017B0004FF4E13002F064FF022201214FF4165091
:1017C00002F0AEFF4FF4E13002F0F4FF02F076F8E1
:1017D00000F0A6F800F07AF800F0BEF801F0A6FBE1
:1017E000142002F0A1F801F097F8002001F04FF862
:1017F000002001F05AF802E0052003F035FF074908
:10180000074801F0C2FB0128F6D101F03BF805A022
:1018100003F03EF810BD0000C0090020AC2E0020EF
:101820000C0A00206F6B0A0010B5044614B10120A9
:10183000244908702348007860B34FF4805122484F
:10184000FFF796FF58B14FF400511F48FFF790FF84
:1018500028B14FF480411C48FFF78AFFD0B900201F
:10186000184908704FF480511748FFF781FF08B9F5
:10187000012010BD4FF400511348FFF779FF08B95C
:101880000220F6E74FF480410F48FFF771FFB0B92F
:101890000320EEE74FF480510B48FFF769FF012862
:1018A0000DD141030848FFF763FF012807D18103E9
:1018B0000548FFF75DFF012801D1024908700020AB
:1018C000D7E7000018000020000C014008B50121F6
:1018D000082001F0A1FA4FF48050ADF80000482034
:1018E0008DF8030069460D48FFF76FFE4FF4005076
:1018F000ADF8000048208DF8030069460748FFF75F
:1019000064FE4FF48040ADF8000048208DF80300DD
:1019100069460248FFF759FE08BD0000000C01406F
:1019200008B50121182001F077FA4FF40050ADF806
:10193000000010208DF8030003208DF80200694696
:101940000348FFF742FE00200249086008BD00007E
:1019500000100140B401224208B50121082001F025
:101960005BFA4FF40070ADF8000048208DF80300DA
:1019700069460248FFF729FE08BD0000000C01403F
:1019800010B50446207B012802D1206802F0A4FF94
:10199000002020606060A060207310BD024600231C
:1019A00001230DE002F07F000870D2092AB1087807
:1019B00040F080000870491C01E0184670475B1C2D
:1019C000042BEFDD4FF0FF30F8E7000010B5C0B09A
:1019D00004464FF480716846FEF7E5FB28A00088B6
:1019E00020804FF480716846FEF7DDFB2548828831
:1019F00025A1684602F05CFF69462046FEF7DEFB43
:101A00004FF480716846FEF7CEFB1E48C28822A1C3
:101A1000684602F04DFF69462046FEF7CFFB4FF4C3
:101A200080716846FEF7BFFB164802891EA1684612
:101A300002F03EFF69462046FEF7C0FB4FF480717E
:101A40006846FEF7B0FB0F48827A1AA1684602F09A
:101A50002FFF69462046FEF7B1FB4FF480716846C0
:101A6000FEF7A1FB17A1684602F022FF6946204657
:101A7000FEF7A4FB2046FEF7C9FBC0B240B010BD84
:101A80007B000000AC2E0020226369747969642217
:101A90003A222564222C00002261726561223A22DA
:101AA0002564222C00000000226964223A22256469
:101AB000222C0000227374617465223A222564226C
:101AC000000000007D00000070B504460E460025B1
:101AD000206898B901202073304602F02BFF206067
:101AE0002068E0B100206060A66003E0002021686B
:101AF00048556D1CA068A842F8D810E00220207359
:101B000003E00020216848556D1CA068A842F8D861
:101B100000206060A068B04201D20020206070BD4B
:101B20002DE9FF5F07460D4690463846FEF76EFBEF
:101B300086B22846FEF76AFB1FFA80FA4FF00009CA
:101B4000B01D02F0F7FE04461CB9012004B0BDE848
:101B5000F09FB11D2046FEF726FB12A00168216010
:101B60008088A080324639462046FEF764FB28462E
:101B7000FEF74CFB83460120002100915B462A467C
:101B8000CDE90208019121460A2000F05FF910B961
:101B90004FF0000901E04FF00109204602F09CFEE1
:101BA0004846D3E724637273702F00002DE9FF4F7E
:101BB00083B082468B469146159C002500200290FA
:101BC0000F2701904846FEF721FB0FFA80F8B9F184
:101BD000000F03D1012007B0BDE8F08F08F102002B
:101BE000384487B2109808B145F00205129878B1D0
:101BF00045F004051298FEF709FBC0B20290139855
:101C0000FEF704FB01460298001D0844384487B2E1
:101C1000119820B1012804D0022808D104E000BFA7
:101C200007E045F00C0504E045F0140501E0022052
:101C3000D1E700BF149808B145F02405BAF1000FB0
:101C400002D0BBF1000F01D10320C4E745F0C0056D
:101C50005046FEF7DBFA06465846FEF7D7FA304400
:101C6000001D384487B239462046FFF72DFF206813
:101C700008B90420AFE739462068FEF794FA10212E
:101C80006268501C606020688154D4E90023D11838
:101C9000781FFFF783FE00B201900198002804DA54
:101CA0002046FFF76DFE052095E76168019808441E
:101CB000606000216268501C6060206881540421CB
:101CC0006268501C6060206881544D216268501C1D
:101CD00060602068815451216268501C60602068F7
:101CE000815454216268501C60602068815462688D
:101CF000501C60602068815404216268501C606040
:101D0000206881546168481C6060206845540698CA
:101D1000010A6268501C6060206881540698C1B254
:101D20006268501C606020688154C8F307216268B3
:101D3000501C6060206881546268501C606020689C
:101D400000F80280D4E90012881842464946FEF79E
:101D500072FA60684044606005F00400B8B3002681
:101D6000139808B938A013901298FEF74FFA86B26C
:101D7000310A6268501C6060206881546268501C9F
:101D8000606020688654D4E900128818324612999F
:101D9000FEF751FA6068304460601398FEF736FA37
:101DA00086B2310A6268501C6060206881546268A3
:101DB000501C606020688654D4E9001288183246AE
:101DC0001399FEF738FA60683044606000BF05F090
:101DD0008000C8B15046FEF719FA86B2310A62682F
:101DE000501C6060206881546268501C60602068EC
:101DF0008654D4E90012881832465146FEF71BFA81
:101E000060683044606000BF05F04000C8B15846CB
:101E1000FEF7FCF986B2310A6268501C60602068E7
:101E200081546268501C606020688654D4E90012B6
:101E3000881832465946FEF7FEF960683044606003
:101E400000BF0020C7E60000000000002DE9FF4FA2
:101E500083B0834690469946139C002600250020B7
:101E6000029001900027BBF1000F03D1012007B0C1
:101E7000BDE8F08F00250AE00498405D232803D0D8
:101E80000498405D2B2801D10220F0E76D1C0498D6
:101E9000405D0028F0D147F03007119808B147F0B5
:101EA000010705EB0900861C109820B1012804D019
:101EB00002280AD105E000BF09E047F00207B61C7E
:101EC00005E047F00407B61C01E00320CFE700BFA0
:101ED00098F80000022822D14FF0000A00BF5046B7
:101EE0000AF1010A18F800007D28F8D1AAF1030AC6
:101EF0000AF1070002900298A9EB000AF01CA0EB7F
:101F00000A012046FFF7E0FD206808B90420AEE78B
:101F1000F21CA2EB0A012068FEF745F90BE0F11C68
:101F20002046FFF7D1FD206808B904209FE7F11C87
:101F30002068FEF738F96168481C606020684754E3
:101F4000D4E9000281183046FFF728FD019001987E
:101F5000002804DA2046FFF713FD052087E76168B3
:101F6000019808446060C5F307216268501C6060F6
:101F7000206881546268501C606020688554D4E9F0
:101F8000001288182A460499FEF755F9606828441B
:101F90006060109860B14FEA1B216268501C60605D
:101FA000206881546268501C6060206800F802B0AC
:101FB000B8F1000F19D098F8000002280BD1D4E92D
:101FC000001288184146029AFEF7D4F86168029818
:101FD0000844606009E0D4E9001288184A46414686
:101FE000FEF7C8F860684844606000203FE770B5BD
:101FF00005460C4604212046FFF766FD206808B917
:10200000012070BD40216268501C606020688154CE
:1020100002216268501C6060206881542912626845
:10202000501C6060206881546268501C60602068A9
:1020300085540020E5E770B505460C46042120468E
:10204000FFF742FD206808B9012070BD7021626869
:10205000501C60602068815402216268501C6060DE
:102060002068815429126268501C60602068815485
:102070006268501C6060206885540020E5E770B5F8
:1020800005460C4604212046FFF71EFD206808B9CE
:10209000012070BD50216268501C6060206881542E
:1020A00002216268501C60602068815429126268B5
:1020B000501C6060206881546268501C6060206819
:1020C00085540020E5E770B505460C4604212046FE
:1020D000FFF7FAFC206808B9012070BD6221626830
:1020E000501C60602068815402216268501C60604E
:1020F0002068815429126268501C606020688154F5
:102100006268501C6060206885540020E5E72DE976
:10211000FF5F8046174699460E9C0026B246B3469E
:102120000025B8F1000F03D1012004B0BDE8F09FF5
:102130000BE057F8250008B90220F6E757F825000C
:10214000FEF764F80644681CC5B24D45F1DB09EBA7
:102150004900801C00EB060A0AF105012046FFF742
:10216000B3FC206808B90320DFE782216268501CB5
:10217000606020688154D4E9000281185046FFF75E
:102180000DFC0FFA80FBBBF1000F04DA2046FFF7CD
:10219000F7FB0420C9E76068584460604FEA1821E3
:1021A0006268501C6060206881546268501C6060E6
:1021B000206800F80280002524E057F82500FEF78B
:1021C00025F80646C6F307216268501C6060206847
:1021D00081546268501C606020688654D4E90023F2
:1021E000D01857F825103246FEF725F860683044BD
:1021F00060600198C1B26268501C606020688154C0
:10220000681CC5B24D45D8DB00208EE7F0B504460A
:102210000D462646012300201060002114E0775C63
:1022200007F07F07106807FB03001060705C00F088
:10223000800008B9481CF0BDDB01B3F5001F02D3D4
:102240006FF00100F7E7491CA942E8DB4FF0FF30CF
:10225000F1E72DE9F84380460C4615461E462F212E
:1022600008F10600FDF7C8FF07460020009017B9E7
:102270000120BDE8F8837F1C6A46042108F10100B3
:10228000FFF7C4FF252002F055FB2060206808B945
:102290000220EEE725212068FDF785FF242239463C
:1022A0002068FDF767FF243700982C38308031888C
:1022B000481C02F03FFB2860286820B9206802F023
:1022C0000BFB0320D5E73288511C2868FDF76BFF14
:1022D000328839462868FDF74DFF0020C9E70146DE
:1022E0004878022801D001207047887810B188789A
:1022F000012801D1C878F7E7FF20F5E72DE9FC5F59
:1023000081460D4614461E46DDE90C8B99F8000007
:1023100000F00F0A002001900AF008000090CAF3B4
:1023200041008BF8000001AA042109F10100FFF728
:102330006DFF4844471C0198022802D30AF00100AF
:1023400010B1FF20BDE8FC9F7878397840EA012081
:1023500020802088801C0199884201D9FF20F1E764
:1023600054A1B81CFDF736FF08B10F20EAE79BF82F
:10237000000020B101283DD0022877D13BE0009831
:1023800008B1FF20DEE72188481C02F0D3FA28605C
:10239000286808B9FF20D5E72288511C2868FDF776
:1023A00002FF2288B91C2868FDF7E4FE0198801E10
:1023B0002188401AA8F80000B8F80010481C02F064
:1023C000B9FA3060306820B9286802F085FAFF2039
:1023D000B8E7B8F80020511C3068FDF7E4FEB8F803
:1023E0000020B4F800C0BB1C0CEB03013068FDF703
:1023F000C1FE4FE000BF2088801C0199884201D9AE
:10240000FF209FE72088C01C395C2088801C385C36
:1024100041EA00210E9801800E9808B9FF2091E74B
:102420002188481C02F086FA2860286808B9FF2035
:1024300088E72288511C2868FDF7B5FE2288B91C60
:102440002868FDF797FE0198001F2188401AA8F818
:102450000000B8F80010481C02F06CFA30603068D8
:1024600028B9286802F038FAFF206BE710E0B8F8C6
:102470000020511C3068FDF796FEB8F80020B4F833
:1024800000C03B1D0CEB03013068FDF773FE01E05B
:10249000FF2057E700BF2B212846FDF7ADFE20B9EE
:1024A00023212846FDF7A8FE08B1FF204AE70020B7
:1024B00048E7000024637265710000000146487817
:1024C000022801D001207047887820B9C8780A28EE
:1024D00001D10020F7E70120F5E7014648780228FE
:1024E00001D001207047887820B9C8780A2801D126
:1024F0000020F7E70120F5E701464878022801D0DF
:1025000001207047887820B9C8780A2801D10020B6
:10251000F7E70120F5E702465078022801D00120B4
:1025200070479078B0EB112F05D1D078CBB298429C
:1025300001D10020F4E70120F2E70000F8B50446DD
:10254000FF2720780511012D01DB0E2D01DD384616
:10255000F8BD032D24D1002000906A460421601CA0
:10256000FFF754FE2044461C0098022803D320782D
:1025700000F0010008B1FF20EAE77078317840EA06
:102580000120801C0099884201D9FF20E0E706A1C4
:10259000B01CFDF71FFE08B10F2700E0032700E085
:1025A0002F463846D4E700002463726571000000AE
:1025B0000146FF208A78A2B9CA78142A11D10A7973
:1025C00032B1012A05D0022A04D0802A06D103E0C4
:1025D00000BF00BF002003E0012001E0022000BF97
:1025E00000BF7047014601208A781AB9CA781E2AAE
:1025F00000D10020704700BFFEE7000010B5A0B07A
:10260000044680216846FDF7CEFD11A00088208099
:1026100080216846FDF7C7FD0E4802780EA1684686
:1026200002F046F969462046FDF7C8FD802168465C
:10263000FDF7B9FD0DA1684602F03AF9694620465A
:10264000FDF7BCFD2046FDF7E1FDC0B220B010BD96
:102650007B000000AC2E002022636865636B5F6422
:102660006576696365223A22256422007D000000B8
:1026700010B5A0B0044680216846FDF794FD11A076
:102680000088208080216846FDF78DFD01220EA183
:10269000684602F00DF969462046FDF78FFD80215E
:1026A0006846FDF780FD0BA1684602F001F9694616
:1026B0002046FDF783FD2046FDF7A8FDC0B220B0FF
:1026C00010BD00007B0000002274696D65223A2273
:1026D000256422007D000000704738B505460C4691
:1026E0004FF4A06000F046F826208DF800008DF829
:1026F00001508DF8024001208DF80300684600F07B
:1027000001F838BD70B5002100230F22C47804B34E
:10271000154C246804F4E064C4F5E064210AC1F1B6
:102720000403CA40447804FA03F184781440214336
:1027300009010E4C0678A155047804F01F05012408
:10274000AC4005786D11AD0005F1E025C5F80041FC
:1027500009E0047804F01F050124AC40044D06781C
:10276000761145F8264070BD0CED00E000E400E075
:1027700080E100E002490143024A11607047000015
:102780000000FA050CED00E000B58DB0244800789B
:10279000002842D100F076F822A1684602F088F8BD
:1027A0006A460021084600F057F922A222A1684695
:1027B00002F07EF86A460221002000F04DF923A2C3
:1027C00025A1684602F074F86A460421002000F052
:1027D00043F926A1684602F06BF86A4606210020FC
:1027E00000F03AF9FEF7E4FC03E04FF4967002F0D3
:1027F0003BFFFEF78DFB0028F7D103E04FF4967006
:1028000002F032FF01211E4800F084FF0028F5D1BC
:102810003C200349087000F035F80DB000BD000001
:10282000080A00202DC7EBB4F2BFAA57494649C891
:10283000C8B5E3004E4554002DC3FBB3C63A25731B
:10284000202020202020202020000000313233349E
:1028500035363738000000002DC3DCC2EB3A257353
:102860002020202020202020200000002DC6B5C2DE
:10287000CA3A20322E342047487A20202000000017
:102880000000002010B5002000F025F810BD10B5A4
:1028900004461CB90021A62000F090F9012C03D1B8
:1028A0000021A72000F08AF910BD10B504463CB9FC
:1028B0000021C82000F082F90021A12000F07EF95B
:1028C000012C07D10021C02000F078F90021A020C0
:1028D00000F074F910BD70B50646002419E004F14B
:1028E000B001C8B2002100F069F90021084600F0EB
:1028F00065F90021102000F061F9002505E00121B3
:10290000304600F05BF9681CC5B2822DF7DB601C15
:10291000C4B2082CE3DB70BD08B50121042000F02F
:102920007BFA3020ADF8000010208DF80300032062
:102930008DF8020069464748FEF747FE30214548BA
:10294000FEF721FF0121042000F066FA0320ADF814
:10295000000010208DF8030003208DF80200694666
:102960003C48FEF732FE03213A48FEF70CFF0021F7
:10297000AE2000F023F90021084600F01FF90021E5
:10298000102000F01BF90021402000F017F9002171
:10299000812000F013F90021CF2000F00FF9002171
:1029A000A12000F00BF90021C82000F007F9002158
:1029B000A62000F003F90021A82000F0FFF8002174
:1029C0003F2000F0FBF80021D32000F0F7F80021B1
:1029D000084600F0F3F80021D52000F0EFF80021C0
:1029E000802000F0EBF80021D92000F0E7F800216A
:1029F000F12000F0E3F80021DA2000F0DFF80021F8
:102A0000122000F0DBF80021DB2000F0D7F80021D5
:102A1000402000F0D3F80021202000F0CFF8002162
:102A2000022000F0CBF800218D2000F0C7F8002133
:102A3000142000F0C3F80021A42000F0BFF800210A
:102A4000A62000F0BBF80021AF2000F0B7F8FFF798
:102A500019FF08BD000801402DE9F04707468846E8
:102A60001646002584E03078A02845DD00253CE0AE
:102A7000702F04DD002708F1020000F0FF08307815
:102A80003E4911F8151088422ED17078012101EBD2
:102A900045013A4A515C884226D14146384600F009
:102AA00077F8002407E004EB4511354A505C01211A
:102AB00000F084F8641C102CF5D308F10100C1B2B9
:102AC000384600F065F8002408E004EB45111031A9
:102AD0002B4A505C012100F071F8641C102CF4D3D7
:102AE00007F11000C7B204E06D1C2648006885425B
:102AF000BED300BFB61C3BE07A2F04DD002708F1EF
:102B0000020000F0FF0831781F48FDF775FB814691
:102B1000B9F1000F2BD04146384600F039F80024B7
:102B20000AE099F80010203904EB0111174A505CB3
:102B3000012100F043F8641C082CF2D308F10100D5
:102B4000C1B2384600F024F800240BE099F80010D8
:102B5000203904EB011108310C4A505C012100F0CE
:102B60002DF8641C082CF1D307F10800C7B2761CBD
:102B7000307800287FF477AFBDE8F0872C0900207B
:102B80000C060020C00900205F0900201C00002066
:102B900070B504460D4605F1B001C8B2002100F041
:102BA0000DF8102141EA1410002100F007F804F09C
:102BB0000F00002100F002F870BD000070B504465F
:102BC0000E4626B102211848FEF7DDFD03E0022182
:102BD0001548FEF7D6FD01211348FEF7D2FD00256A
:102BE00017E010211048FEF7CCFD04F0800020B162
:102BF00020210D48FEF7C7FD03E020210A48FEF71B
:102C0000C0FD10210848FEF7BEFD6006040E681CDA
:102C1000C5B2082DE5DB01210348FEF7B4FD022112
:102C20000148FEF7B0FD70BD0008014010B5C0B00E
:102C300004464FF480716846FDF7B5FA44A0008859
:102C4000208069462046FDF7B9FA4FF48071684646
:102C5000FDF7A9FA3FA1684601F02AFE6946204621
:102C6000FDF7ACFA4FF480716846FDF79CFA43A17A
:102C7000684601F01DFE69462046FDF79FFA4FF4B5
:102C800080716846FDF78FFA3FA1684601F010FE9B
:102C900069462046FDF792FA4FF480716846FDF7C9
:102CA00082FA3C4842783CA1684601F001FE694640
:102CB0002046FDF783FA4FF480716846FDF773FAFA
:102CC0003848027838A1684601F0F2FD694620468E
:102CD000FDF774FA4FF480716846FDF764FA2D48E9
:102CE000828A35A1684601F0E3FD69462046FDF77A
:102CF00065FA4FF480716846FDF755FA2548C28A97
:102D000030A1684601F0D4FD69462046FDF756FA29
:102D10004FF480716846FDF746FA2DA1684601F030
:102D2000C7FD69462046FDF749FA4FF480716846B1
:102D3000FDF739FA26A1684601F0BAFD694620463A
:102D4000FDF73CFA2046FDF761FAC0B240B010BD75
:102D50007B000000226D6574686F64223A227468FB
:102D6000696E672E736572766963652E70726F7017
:102D7000657274792E736574222C000022696422B6
:102D80003A2231222C00000022706172616D7322A0
:102D90003A7B0000942E002022666C616765223A1F
:102DA00025642C00AC2E00202268616E67657222BB
:102DB0003A25642C00000000226C69676874223A8E
:102DC00025642C00227261696E223A25640000009D
:102DD0007D0000007047000029B1064AD269024315
:102DE000044BDA6104E0034AD2698243014BDA61A1
:102DF000704700000010024029B1064A12690243E0
:102E0000044B1A6104E0034A12698243014B1A61C0
:102E1000704700000010024029B1064A926902433F
:102E2000044B9A6104E0034A92698243014B9A6120
:102E3000704700000010024029B1064AD2680243E0
:102E4000044BDA6004E0034AD2688243014BDA6043
:102E5000704700000010024030B50021002200241D
:102E600000232D4D6D6805F00C0121B1042905D01A
:102E7000082923D105E0294D056022E0274D056092
:102E80001FE0254D6D6805F47012234D6D6805F443
:102E90008034022505EB92421CB9214D5543056053
:102EA0000BE01D4D6D6805F400351DB11C4D5543FB
:102EB000056002E0194D5543056002E0174D0560BD
:102EC00000BF00BF144D6D6805F0F0010909154DF4
:102ED0006B5C0568DD4045600F4D6D6805F4E06191
:102EE000090A104D6B5C4568DD4085600A4D6D68D0
:102EF00005F46051C90A0B4D6B5C4568DD40C56047
:102F0000054D6D6805F44041890B074D6B5CC56844
:102F1000B5FBF3F5056130BD0010024000127A00E8
:102F200000093D00DA090020EA09002008B5012166
:102F30000820FFF771FF8020ADF8000010208DF809
:102F4000030003208DF8020069460748FEF73DFBA9
:102F50002020ADF8000069460348FEF736FB20212B
:102F60000148FEF70EFC08BD000C014000B502222E
:102F700002490348006800F0B7FC00BD120A0020B7
:102F8000C409002001460120704770B505460C4673
:102F90000120A073FFF7EAFF00202070012070BD20
:102FA00070B58CB006460020089009900A900B90EE
:102FB0000790069005900490002403900025304669
:102FC000FFF7BCFA0446E01E0D2870D2DFE800F0DF
:102FD00028707B93ADCDB5CDC1CDCDCD070004AB71
:102FE00007AA06A93046FFF734F90546BDB9BDF872
:102FF00010306BA0DDE9061201F04AFC08AADDE9F9
:103000000601FEF78DFD50B96EA001F041FC099A52
:1030100091B20898FEF7DCF908A8FEF7B1FCA7E02A
:103020006E4803A904AA07ABCDE90021029005AAC6
:1030300006A93046FFF762F90546002D36D1BDF8E6
:1030400010000090BDF8142065A0DDE9061301F022
:103050001FFC9DF80C00012802D0022824D111E0A9
:1030600008A95E480088FEF7C2FF50B96BA001F0C6
:103070000FFC099A91B20898FEF7AAF908A8FEF782
:103080007FFC12E008A955480088FEF7F8FF50B908
:1030900068A001F0FDFB099A91B20898FEF798F933
:1030A00008A8FEF76DFC00E000BF00BF60E05CE038
:1030B0003046FFF703FA10B964A001F0E9FB3C20A9
:1030C0006A49087054E03046FFF716FA90B968A0D4
:1030D00001F0DEFB08A90A20FEF7F5FF50B96AA04F
:1030E00001F0D6FB099A91B20898FEF771F908A889
:1030F000FEF746FC3CE0394801883046FFF70BFA02
:1031000090B967A001F0C4FB08A90A20FEF793FF5D
:1031100050B969A001F0BCFB099A91B20898FEF77A
:1031200057F908A8FEF72CFC22E03046FFF7D5F946
:1031300010B968A001F0ACFB1AE03046FFF738FA8E
:1031400018B96AA001F0A4FB02E06FA001F0A0FB97
:103150000EE03046FFF746FA18B972A001F098FB6E
:1031600002E077A001F094FB02E04FF0FF3500BFD2
:1031700000BFFDF7E7FF681C08B90CB070BD0798E9
:1031800010B1079802F020FB0F2C01D0032C05D1C1
:10319000069801F0A1FB079801F09EFB00BFECE749
:1031A000636D6469643A2025732C207265713A203E
:1031B00025732C207265715F6C656E3A2025640D55
:1031C0000A000000546970733A0953656E64204325
:1031D0006D64526573700D0A000000000A0A002039
:1031E000746F7069633A2025732C20746F70696363
:1031F0005F6C656E3A2025642C207061796C6F617C
:10320000643A2025732C207061796C6F61645F6C67
:10321000656E3A2025640D0A000000005469707341
:103220003A0953656E64205075626C697368416336
:103230006B0D0A00546970733A0953656E6420502F
:1032400075626C6973685265630D0A005469707326
:103250003A094D515454205075626C69736820537B
:10326000656E64204F4B0D0A00000000080A002024
:10327000546970733A09526576205075626C6973AF
:10328000685265630D0A0000546970733A0953650A
:103290006E64205075626C69736852656C0D0A002B
:1032A000546970733A09526576205075626C69737F
:1032B0006852656C0D0A0000546970733A095365D1
:1032C0006E64205075626C697368436F6D700D0A8F
:1032D00000000000546970733A09526576205075F9
:1032E000626C697368436F6D700D0A005469707386
:1032F0003A094D5154542053756273637269626583
:10330000204F4B0D0A000000546970733A094D516B
:1033100054542053756273637269626520457272FA
:103320000D0A0000546970733A094D5154542055E8
:103330006E537562736372696265204F4B0D0A00AC
:10334000546970733A094D51545420556E53756247
:10335000736372696265204572720D0A0000000095
:103360007047000010B5C8B00020449045904690CA
:10337000479000244FF4807104A8FCF714FF04A8C0
:10338000FFF754FC0446002C19D044A80121002268
:10339000CDE90012234604AACDE9021009A10A20B2
:1033A000FEF754FD40B9459A91B24498FEF710F8E3
:1033B00044A8FEF7E5FA02E010A001F069FA48B06F
:1033C00010BD00002F7379732F6839736A38467AFD
:1033D0004A3067792F736D617274646576696365CD
:1033E0002F7468696E672F6576656E742F70726FC3
:1033F00070657274792F706F737400005741524E6C
:103400000D0A000030B5C9B0044600204590469032
:103410004790489000254FF4807105A8FCF7C3FE43
:10342000012C06D0022C09D0032C0CD0042C14D172
:103430000EE005A8FEF7CAFA05460FE005A8FFF75B
:1034400017F905460AE005A8FFF7D8F8054605E094
:1034500005A8FFF7D3F8054600E000BF00BFCDB1D7
:1034600045A801210022CDE900122B4605AACDE98D
:10347000021009A10A20FEF7E9FC40B9469A91B270
:103480004598FDF7A5FF45A8FEF77AFA02E00AA0E5
:1034900001F0FEF949B030BD2F62726F6164636163
:1034A00073742F6839736A38467A4A3067792F7493
:1034B00065737432000000005741524E0D0A00003F
:1034C00010B50748007848B1064907A001F0E0F9B7
:1034D000044802F079F9012000F0BCFF10BD0000A3
:1034E000CE090020681A002025730A3A0000000067
:1034F00010B500F001F810BD0CB50020019000904F
:103500003348006840F480303149086000BF3048DB
:10351000006800F4003000900198401C0190009871
:1035200018B90198B0F5A06FF1D12948006800F4EE
:10353000003010B10120009001E0002000900098C0
:10354000012843D12348006840F010002149086059
:103550000846006820F0030008600846006840F054
:10356000020008601A4840681949486008464068E7
:1035700048600846406840F48060486008464068FB
:1035800020F47C1048600846406840F4E810486029
:103590000846006840F08070086000BF0C48006872
:1035A00000F000700028F9D00948406820F00300BE
:1035B000074948600846406840F00200486000BF84
:1035C0000348406800F00C000828F9D10CBD000049
:1035D000001002400020024010B5044614B1012C36
:1035E0000ED106E0102007490880642002F03CF864
:1035F00006E00D2003490880642002F035F800BF82
:1036000000BF10BD4004004010B5044614B1012CA9
:103610000ED106E0182007490880642002F024F843
:1036200006E0142003490880642002F01DF800BF62
:1036300000BF10BD3C04004010B5044614B1012C7D
:103640000ED106E0162007490880642002F00CF82D
:1036500006E0162003490880642002F005F800BF48
:1036600000BF10BD3804004010B5044634B1012C31
:103670000BD0022C10D0032C1CD114E006200E49D4
:103680000880642001F0F0FF14E009200A49088056
:10369000642001F0E9FF0DE00C2007490880642058
:1036A00001F0E2FF06E00F2003490880642001F0EA
:1036B000DBFF00BF00BF10BD3404004010B5012384
:1036C0004FF47A720D490E4802F0DCFC0123FA2215
:1036D0000C490D4802F0D6FC01234FF4FA520B4975
:1036E0000B4802F0CFFC064802F0FCFC064802F052
:1036F000F9FC074802F0F6FC10BD0000316000083C
:103700003812002049600008481200206960000853
:1037100058120020F0B585B004460D460026002062
:10372000019002900390049006E054F826101FA028
:1037300001F0AEF8701CC6B2AE42F6DB01A82B4613
:103740002246002100901420FEF7E1FC00282BD136
:10375000029A91B20198FDF73BFE4FF4FA70FDF723
:10376000FFFC07463846FEF7E9FE09280AD115A0F6
:1037700001F08EF801A8FEF703F900201849C8707F
:1037800005B0F0BD17A001F083F801A8FEF7F8F826
:103790001348C078401CC0B21149C870022801DD2E
:1037A00000F044F80120EBE70120E9E7537562736C
:1037B000637269626520546F7069633A2025730DE6
:1037C0000A000000546970733A094D515454205353
:1037D0007562736372696265204F4B0D0A000000C9
:1037E000942E0020546970733A094D51545420535B
:1037F0007562736372696265204572720D0A00001A
:10380000042808D14FF0E021096941F004014FF08C
:10381000E022116107E04FF0E021096921F0040185
:103820004FF0E0221161704770470000012080F3E3
:10383000138800BF00BF0748006800F4E060064935
:103840000843001D03490860BFF34F8F00BF00BF4E
:10385000FEE700000CED00E00000FA0510B513488B
:10386000006840F0010011490860084640681049AE
:1038700008400E494860084600680E4908400B4958
:1038800008600846006820F4802008600846406808
:1038900020F4FE0048604FF41F008860FFF728FE08
:1038A0004FF000600449086010BD000000100240A5
:1038B0000000FFF8FFFFF6FE08ED00E010B5012163
:1038C0000820FFF7A9FA01210846FFF7A5FA012110
:1038D0000348FDF705FF01210248FDF701FF10BD78
:1038E000000430000002300030B503460D48048863
:1038F000B3F1006F01D2012030BD4FF0006000EB4A
:103900008420984201D20220F6E703E0187808707C
:10391000491C5B1C101EA2F10105AAB2F6D100BF22
:10392000EAE70000E0F7FF1F10B588B00446012168
:103930000220FFF751FA01210D20FFF76DFAC02098
:10394000ADF81C0018208DF81F0003208DF81E0014
:1039500007A94D48FDF739FE0320ADF81C001820DB
:103960008DF81F0003208DF81E0007A94748FDF7BA
:103970002CFE474800F01EF9C720ADF8140041F6B0
:103980001F40ADF810000020ADF81600ADF8120091
:103990008DF8180004A93E4800F076FB7020ADF8C1
:1039A00000000120ADF802000002ADF80C0000207C
:1039B000ADF808006020ADF800000020ADF80E0062
:1039C0000820ADF80A000420ADF80400694630482C
:1039D00000F0FEF908212E4800F046FA6020ADF80C
:1039E00000000020ADF80E000820ADF80A00042009
:1039F000ADF804006946264800F040FA0821244842
:103A000000F08EFA6020ADF800000020ADF80E0046
:103A10000820ADF80A000420ADF8040069461C48EF
:103A200000F08CFA08211A4800F0D8FA6020ADF8AE
:103A300000000020ADF80E000820ADF80A000420B8
:103A4000ADF804006946124800F0D2FA0821104887
:103A500000F00CFB0020FFF7BFFD0120FFF7D4FDB5
:103A60000020FFF7E9FD0020FFF7FEFD01210848D7
:103A700000F090F80121064800F06EF8012104489A
:103A800000F07CF808B010BD00080140000C0140B7
:103A90000004004010B50121284800F07FF90028FB
:103AA0004AD027480068401C2549086002F042FBC4
:103AB000234800681921B0FBF1F201FB120010B994
:103AC0000020204908701E4800686421B0FBF1F214
:103AD00001FB1200B8B91C480068401C1A49086074
:103AE0001A48007878B91A480088002804DD184878
:103AF0000088401C16490880154800880A2802DD05
:103B00000120124908700E4800684FF47A71B0FB2A
:103B1000F1F201FB120058B90020094908600D4874
:103B20000078002804DD0B480078401E0949087021
:103B30000121024800F01FF810BD000000080040FD
:103B4000200A0020240A0020280A00202C0A002035
:103B5000260A0020080A002021B1028842F08002D3
:103B6000028004E002884FF67F731A40028070479B
:103B7000CA4302827047CA430282704721B1028859
:103B800042F00102028004E002884FF6FE731A4000
:103B90000280704731B1B0F8442042F40042A0F8EE
:103BA000442005E0B0F84420C2F30E02A0F84420FF
:103BB0007047000010B504466848844208D10121CE
:103BC000C014FFF739F90021E014FFF735F9C4E01C
:103BD000B4F1804F08D101210846FFF70DF900210B
:103BE0000120FFF709F9B8E05D48844208D10121BE
:103BF0000220FFF701F900210220FFF7FDF8ACE0F9
:103C00005848844208D101210420FFF7F5F800212B
:103C10000420FFF7F1F8A0E05348844208D10121C5
:103C20000820FFF7E9F800210820FFF7E5F894E005
:103C30004E48844208D101211020FFF7DDF8002111
:103C40001020FFF7D9F888E04948844208D10121C3
:103C50002020FFF7D1F800212020FFF7CDF87CE0ED
:103C60004448844208D101214014FFF7E5F80021BF
:103C70006014FFF7E1F870E03F48844209D1012168
:103C8000C804FFF7D9F800214FF40020FFF7D4F85B
:103C900063E03A48844209D101210805FFF7CCF8D6
:103CA00000214FF48010FFF7C7F856E034488442F3
:103CB00009D101214805FFF7BFF800214FF400109A
:103CC000FFF7BAF849E02F48844208D1012140208B
:103CD000FFF792F800214020FFF78EF83DE02A48D8
:103CE000844208D101218020FFF786F8002180203E
:103CF000FFF782F831E02548844208D10121801580
:103D0000FFF77AF80021A015FFF776F825E02048A4
:103D1000844209D101210804FFF78EF800214FF4F5
:103D20008030FFF789F818E01A48844209D1012150
:103D30004804FFF781F800214FF40030FFF77CF8CA
:103D40000BE01548844208D101218804FFF774F87C
:103D500000214FF48020FFF76FF810BD002C0140C8
:103D60000004004000080040000C0040001000402B
:103D70000014004000340140004C0140005001405C
:103D80000054014000180040001C0040002000408A
:103D900000400140004401400048014030B5024667
:103DA000002000230024158A05EA0103958905EA0D
:103DB000010413B10CB1012000E0002030BD1AB1A4
:103DC00083890B43838102E083898B43838170471E
:103DD00070B5002400220023058C4FF6FE76354096
:103DE0000584028C8388048B4FF68F752C40B51E9A
:103DF0002C400D882C43751E2A400D892A434D887E
:103E00002A43144DA8420BD0134DA84208D0134D9D
:103E1000A84205D0124DA84202D0124DA84213D19B
:103E20004FF6F7752A404D892A434FF6FB752A4015
:103E30008D882A434FF6FF652B404FF6FF552B40E8
:103E40008D892B43CD892B4383800483CD88858640
:103E5000028470BD002C014000340140004001404C
:103E600000440140004801400A460021018B4FF602
:103E7000F7731940114301837047000070B50024A7
:103E800000220023058C4FF6EF7635400584028C26
:103E90008388048B48F6FF752C404FF6FF452C4075
:103EA0000D884FF6FF7606EA05252C434FF6DF75A1
:103EB0002A400D8906EA05152A434D8806EA0515AC
:103EC0002A43154DA84202D0144DA8421DD14FF6E9
:103ED0007F752A404D894FF6FF7606EA05152A437D
:103EE0004FF6BF752A408D8806EA05152A434FF61E
:103EF000FF352B404FF2FF752B408D8906EA850573
:103F00002B43CD8906EA85052B4383800483CD8826
:103F10000587028470BD0000002C01400034014080
:103F20000A460021018B4FF2FF7319404FF6FF73D1
:103F300003EA0223194301837047000070B500248F
:103F400000220023058C4FF6FF6635400584028C65
:103F50008388848B4FF68F752C404FF6FC752C4070
:103F60000D882C434FF6FF552A400D894FF6FF76FA
:103F700006EA05252A434D8806EA05252A43154DFC
:103F8000A84202D0144DA8421DD14FF2FF752A401D
:103F90004D894FF6FF7606EA05252A434FF6FF3591
:103FA0002A408D8806EA05252A434EF6FF752B40E8
:103FB0004DF6FF752B408D8906EA05152B43CD89FB
:103FC00006EA05152B4383808483CD888587028488
:103FD00070BD0000002C0140003401400A46002161
:103FE000818B4FF6F77319401143818370470000AE
:103FF00070B5002200230024058C4EF6FF76354074
:104000000584038C8488828B48F6FF752A404FF61E
:10401000FF452A400D884FF6FF7606EA05252A431C
:104020004DF6FF752B400D8906EA05352B434D886B
:1040300006EA05352B430B4DA84202D00A4DA84293
:1040400008D14BF6FF752C408D894FF6FF7606EAB6
:1040500085152C4384808283CD88A0F8405003844A
:1040600070BD0000002C0140003401400A460021D0
:10407000818B4FF2FF7319404FF6FF7303EA02235F
:104080001943818370470000002202881D4B98422B
:104090000ED01D4B98420BD0B0F1804F08D01B4B77
:1040A000984205D01A4B984202D01A4B984204D13C
:1040B0004FF68F731A404B881A43174B984207D01C
:1040C000164B984204D04FF6FF431A40CB881A4350
:1040D00002808B8883850B8803850A4B98420BD01E
:1040E000094B984208D00E4B984205D00D4B984290
:1040F00002D00D4B984201D10B7A038601238382B3
:1041000070470000002C01400034014000040040D2
:1041100000080040000C0040001000400014004067
:10412000004001400044014000480140014602298E
:1041300001D1024800BF00BF7047000000080040E6
:1041400010B540F225511D4800F0BEF810B31B48D1
:1041500000F076F9C4B21A48008800F40040C8B9EB
:104160001748008800F4804060B10A2C03D000207A
:104170001349088020E01248008840F400401049AC
:10418000088019E00D2C06D10D48008840F48040CD
:104190000B49088010E00A480088C0F30D00094967
:1041A0000C5407480088401C0549088008460088D0
:1041B000C72801DD0020088010BD00000038014044
:1041C000D8090020681C002010B540F22551144881
:1041D00000F07AF810B3124800F032F9C4B2114876
:1041E0000088FF280FDA1048007838B90D48018898
:1041F0000088401C0B4A10800C4844547D2C02D18E
:104200000120094908700120094908800020094956
:1042100008702021024800F035F8002410BD00008D
:1042200000440040CC090020CE090020681A00207C
:10423000260A00202C0A002010B540F225510E4815
:1042400000F042F8B0B10D480088FF2802D90020E4
:104250000A4908800848001D0088C1B20748028842
:104260000088401C054B18800548815420210248D5
:1042700000F008F810BD000000480040EE090020E2
:104280009425002001F40072B2F5007F00D100BF38
:10429000CA430280704721B1828942F40052828170
:1042A00004E082894DF6FF731A408281704702460E
:1042B0000020B1F5007F00D100BF13880B400BB187
:1042C000012000E00020704770B502460024002362
:1042D0000025002040F66A16B14200D100BFC1F3AC
:1042E000421501F01F03012606FA03F3012D02D146
:1042F0009689334006E0022D02D1168A334001E050
:10430000968A33400C12012606FA04F416883440CB
:1043100013B10CB1012000E0002070BDF0B50346E0
:10432000002400260025002040F66A17B94200D17B
:1043300000BF1846C1F3421401F01F06012707FA17
:1043400006F5012C01D10C3004E0022C01D1103013
:1043500000E014301AB107682F43076002E00768D5
:10436000AF430760F0BD00002DE9F04786B0054679
:104370000E460024A24600BFA1460027B08900B126
:1043800000BF2F462C8A4CF6FF700440F08804438F
:104390002C82AC894EF6F3100440B0883189084372
:1043A000718908430443AC81AC8A4FF6FF40044056
:1043B000B0890443AC8201A8FEF74EFD1F48874236
:1043C00002D1DDF810A001E0DDF80CA0A88900F40E
:1043D000004040B10AEBCA0000EB0A103168490006
:1043E000B0FBF1F807E00AEBCA0000EB0A103168F5
:1043F0008900B0FBF1F86420B8FBF0F0040120095B
:10440000642101FB1089A88900F4004040B13220EA
:1044100000EBC900B0FBF1F000F00700044308E036
:10442000322000EB09106421B0FBF1F000F00F0026
:1044300004432C8106B0BDE8F0870000003801403D
:1044400001468888C0F308007047C1F308028280E3
:104450007047000010B5044624B1012C09D0022C8D
:1044600015D113E00B4A0C4801880CA000F010FA9B
:104470000EE04FF480710748FBF795FE00200649D7
:1044800008800C4908700C49088001E000E000BF7A
:1044900000BF10BD681A0020CC090020756172743D
:1044A0003220726563763A2025642C2025730D0A2C
:1044B00000000000CE090020260A002010B5254883
:1044C000807A012808D12348007B012804D12249A1
:1044D000086014201F4948734FF400711F48FDF70E
:1044E00047F988B91B48007B01280DD100201949E4
:1044F0000873022088721A48007810B90120184900
:1045000008700120134948731248407B28B91148AC
:10451000007B10B900201049086011480078B8B13C
:104520000F480078012804D0022806D003280BD1B8
:1045300006E00120FEF766FF06E0FEF713FF03E04A
:104540000220FEF75FFF00BF00BF00200449087093
:10455000012010BDAC2E00209C812142000C0140A6
:10456000942E002000B58FB026A102A800F0A0F97B
:1045700002AA00210846FEF76FFA2548008900903C
:104580002348C388828823A102A800F091F902AAD7
:1045900002210020FEF760FA1D48807A032804D12A
:1045A00020A102A800F084F918E01948807A0228B6
:1045B00004D121A102A800F07BF90FE01448807A11
:1045C000012804D121A102A800F072F906E01048E8
:1045D000807A18B922A102A800F06AF902AA04217F
:1045E0000020FEF739FA0A48427B22A102A800F017
:1045F0005FF902AA06210020FEF72EFA01200FB073
:1046000000BD0000BFECB5DDB1E0C2EB2020200012
:10461000AC2E0020253034642D253032642D253019
:1046200032642000D7B4CCAC3A20B3F6BFE22020ED
:104630002020202000000000D7B4CCAC3A20C8EBEA
:10464000BFE220202020202000000000D7B4CCAC06
:104650003A20CEB4C8EBBFE22020202000000000AA
:10466000D7B4CCAC3A20D5FDD4DAB2E9D1AF202012
:1046700020000000253032642053000000BFFEE718
:1046800010B586B00446012144F20400FEF7C4FBD5
:104690004FF40070ADF8140003208DF816001820B8
:1046A0008DF8170005A91C48FCF78FFF4FF48060B8
:1046B000ADF8140004208DF8170005A91648FCF782
:1046C00084FF25208DF8000003208DF801008DF86F
:1046D000020001208DF803006846FEF713F80194EC
:1046E0000020ADF80800ADF80A00ADF80C00ADF8F8
:1046F00010000C20ADF80E0001A90848FFF734FEA9
:10470000012240F225510548FFF708FE0121034828
:10471000FFF7C1FD06B010BD0008014000380140A0
:1047200070B586B006460C46154601210420FEF7FA
:1047300073FB01214804FEF74FFB0420ADF8140081
:1047400018208DF8170003208DF8160005A91748CA
:10475000FCF73BFF0820ADF8140004208DF817008B
:1047600005A91248FCF731FF01960020ADF80800BA
:10477000ADF80A00ADF80C00ADF810000C20ADF853
:104780000E0001A90A48FFF7EFFD29462046FDF774
:10479000A4FF012240F225510548FFF7BFFD01218A
:1047A0000348FFF778FD06B070BD00000008014027
:1047B0000044004010B586B0044601210820FEF7F1
:1047C0002BFB01218804FEF707FB18208DF817004A
:1047D0004FF48060ADF8140003208DF8160005A991
:1047E0001D48FCF7F2FE04208DF817004002ADF8DA
:1047F000140003208DF8160005A91748FCF7E5FE04
:1048000001940020ADF810000C20ADF80E0000203F
:10481000ADF80C00ADF80A00ADF8080001A90F488A
:10482000FFF7A2FD01210D48FFF735FD012240F2FF
:1048300025510A48FFF772FD27208DF8000001205E
:104840008DF803008DF801008DF802006846FDF731
:1048500059FF06B010BD0000000C014000480040A8
:1048600070B504460D4600260DE014F8011B0748FC
:10487000FFF7EBFD00BF40210448FFF718FD0028BB
:10488000F9D0701C86B2AE42EFDB70BD004800402C
:104890000FB4054B10B503A9044A029800F04CF977
:1048A00010BC5DF814FB0000B5560008D4090020C8
:1048B0000FB4084B10B504A902AA039800F03CF904
:1048C000044602A9002000F0CEFC204610BC5DF892
:1048D00014FB00006752000830B528B1144C031FC8
:1048E000002021680A4605E0084630BD9A4203D8F8
:1048F00010465268002AF9D1002800D041680BD038
:104900000468A3EB0005A54204D11B681C440346C0
:10491000046002E0436000E023603AB11C68D51AED
:10492000A54203D115682C441C6052685A6030BD02
:10493000300A00202DE9F04782460F4C10480D4EFA
:104940000E4F001B4FF0000820F007054FF0010943
:1049500000221146504600F0E7FE002802D13068E0
:1049600010B10020BDE8F0873C60C4E90058C6F8EB
:104970000090EDE7340A0020C42E0020300A002009
:10498000C03A002002E008C8121F08C1002AFAD16C
:1049900070477047002001E001C1121F002AFBD1BF
:1049A000704700002DE9FF5F82B00021DDE904308F
:1049B000020DDDF840B0034318D044F61050A2F2C7
:1049C000FF3242431514119801281FD0A5EB0B00AC
:1049D000401C5FEA000A4FF000064E4FDFF83891A6
:1049E000B046504615D5CAF1000413E011980124D1
:1049F0004AA3012801D16FEA0B010298119AC0E97C
:104A00000031C0E9024206B0BDE8F09FCBF10000E2
:104A1000DFE704460021404A491842EB0450CDE943
:104A2000001012E0E00707D032463B4640464946B8
:104A3000FBF77BFE8046894632463B4610461946C8
:104A4000FBF773FE06460F466410002CEAD1DDE941
:104A50000401DDE90023BAF1000F06DAFBF765FE79
:104A600042464B46FBF761FE05E0FCF762F8424622
:104A70004B46FCF75EF804460E460022284BFBF737
:104A8000FDFE03D84FF0FF30014607E00022254B22
:104A900020463146FBF7A2FDFCF7C6F8102409E0DA
:104AA000002C0ADB0A220023FBF716FF039B30329F
:104AB0001A55641E50EA0102F2D1641C039AC4F133
:104AC00011031444119A012A03D0012208430DD185
:104AD0000AE0084304D000204FF0110B119072E758
:104AE000A3EB0B056D1E0DE05B4504DD4FF00002EE
:104AF00005F1010504E003DA4FF00002A5F101051C
:104B0000002AECD002981199C0E90231C0E90045B1
:104B100079E70000000014400000F03F3000000082
:104B20000000F0430000E03F30380A2801D20120A5
:104B300070470020704700002DE9FF4F95B09B465D
:104B40008946064600250FE2252877D1002427460E
:104B5000F84A0121059400E0044316F8013F203B88
:104B600001FA03F01042F7D130782A2811D06FF003
:104B70002F033078A0F13002092A16D8059A44F0A4
:104B8000020402EB820203EB42021044761C059001
:104B9000EFE759F8042B0592002A03DA504244F457
:104BA0000054059044F00204761C30782E2816D16B
:104BB00016F8010F44F004042A280DD06FF02F02DC
:104BC0003078A0F13003092B09D807EB870302EBFB
:104BD0004303C718761CF3E759F8047B761C30783A
:104BE0006C280FD006DC4C2817D068280DD06A2816
:104BF00014D104E0742810D07A280FD10DE044F4C9
:104C000000140AE044F4801401E044F44014727883
:104C1000824202D104F58014761C761C3078662816
:104C20000BD013DC582877D009DC002875D0452834
:104C3000F6D04628F4D047281AD19DE118E0632821
:104C400035D0642879D0652812D195E1702873D0C9
:104C500008DC6728F1D069286FD06E280DD06F2846
:104C600006D1B5E073282CD0752875D0782874D07B
:104C70005A46179990476D1C75E1C4F302500228FB
:104C800009D003280DD0D9F8001004280DD00D60EC
:104C900009F1040967E1D9F80010EA17C1E90052E7
:104CA000F6E7D9F800100D80F2E70D70F0E719F87B
:104CB000041B8DF8001000208DF80100EA46012049
:104CC00003E059F804AB4FF0FF3061074FF00001EB
:104CD00002D40DE008F101018846B9420FDA80459F
:104CE000F8DB1AF808100029F4D108E008F10101F6
:104CF00088468142FADB1AF808100029F6D1059897
:104D00005B46A0EB080721463846179A00F094FA54
:104D1000284400EB080507E04DE029E10DE01AF812
:104D2000010B5A4617999047B8F10108F7D25B4634
:104D300021463846179A13E142E00A220092C4F352
:104D400002524FF0000A022A08D059F804CB032A75
:104D50004FEAEC710AD00DE029E02AE009F10701E1
:104D600021F00702F2E802C1914609E00FFA8CFC3B
:104D70004FEAEC71042A03D14FFA8CFC4FEAEC7134
:104D8000002907DA0A460021DCF1000C61EB020180
:104D90002D2202E0220504D52B228DF804200122C9
:104DA00003E0E20701D02022F7E7904659E00A210C
:104DB00002E010220DE010214FF0000A00910BE0FC
:104DC00010224FF0000A44F004040827009203E088
:104DD00008224FF0000A0092C4F30252022A05D0C2
:104DE00059F804CB0021032A08D009E009F1070192
:104DF00021F00702F2E802C1914605E01FFA8CFC9F
:104E0000042A01D10CF0FF0C4FF00008220728D52E
:104E1000702806D0009B83F0100353EA0A0305D0E4
:104E20000EE040228DF80420012208E05CEA010235
:104E300006D030228DF804208DF80500022290461D
:104E4000009B83F0080353EA0A030AD15CEA0102DB
:104E500001D1620705D530228DF804204FF00108FA
:104E60007F1E582804D034A003900EA802900DE0B5
:104E700036A0F9E753466046009AFBF72DFD8446BD
:104E80000398825C0298401E029002705CEA010066
:104E9000F0D1029806A9081A00F1200A600702D58D
:104EA00024F4803400E00127574502DDA7EB0A0017
:104EB00000E0002000EB0A01009005984144401AF0
:104EC0000590E00306D45B462146179A059800F04A
:104ED000B3F90544002706E001A85A46C05D1799BA
:104EE00090476D1C7F1C4745F6DBE0030CD55B4605
:104EF0002146179A059800F09FF9054404E03020F8
:104F00005A46179990476D1C0099481E0090002939
:104F1000F5DC08E0029802995A460078491C029193
:104F2000179990476D1CBAF10001AAF1010AF1DC52
:104F300065E100000928010030313233343536375D
:104F400038396162636465660000000030313233D5
:104F50003435363738394142434445460000000075
:104F600000F058F90544761C307800287FF4ECAD49
:104F700019B02846BDE8F08F620700D4062709F172
:104F8000070222F0070CFCE80223E14603F0004888
:104F90005FEA080C02D00FF2702C0DE05FEA045CAF
:104FA00002D50FF2682C07E05FEAC47C02D00FF252
:104FB000602C01E0AFF2700C4FF0FF3823F000439B
:104FC000CDF850C065280CD006DC452809D046280D
:104FD0001DD047283DD13DE0662818D067287ED1F6
:104FE00038E00021112F01DB112000E0781CCDE911
:104FF000000106A90EA8FFF7D5FCDDE90F010E9A06
:1050000003910021009207F1010A04914DE04FF055
:1050100000400097CDE9011006A90EA8FFF7C2FCD9
:10502000DDE90F0203920E9B11990022DDF80CA01E
:105030000093049211B9791C00EB010AB7EB0A0046
:1050400004D4C0F1FF3007F1010A0490AAEB070075
:10505000019044E0012F00DA01270021112F01DD2A
:10506000112000E03846CDE9000106A90EA8FFF79F
:1050700099FCDDE90F010E9A039100210491009241
:10508000BA4621070CD40399514500DA8A46BAF191
:10509000010F05DD009AAAF10101515C302908D009
:1050A000B84202DA10F1040F06DA0121CDE901104D
:1050B00015E0AAF10101E9E7002805DC04990144A3
:1050C0000491AAEB000102E0411C514500DD8A4633
:1050D0000499401A401C01904FF0004002902007B4
:1050E00004D40198504501DBCDF8048000208DF8F0
:1050F0004F0002980DF14F07B0F1004F25D02B2043
:105100000E9002984FF0020800280CDA40420290FC
:105110002D200E9007E00A210298FBF7C7FB3031E3
:10512000029007F8011DB8F10001A8F10108F2DCB6
:1051300002980028EFD1791E0E980870307800F0A0
:10514000200040F0450007F8020D12A8C01B00F136
:1051500007081498007800B1012000EB0A010198BB
:1051600001EBE07105984144401A401E0590E003B0
:1051700006D45B462146179A059800F05DF8054471
:105180001498007818B15A46179990476D1CE0039F
:1051900024D55B462146179A059800F04DF8054442
:1051A0001CE00498002807DBDDE90301884203DDE9
:1051B0000098405C179901E0179930205A469047B3
:1051C000049805F10105401C04900198401E0190CF
:1051D00004D12E205A46179990476D1CBAF1000150
:1051E000AAF1010ADDDC05E017F8010B5A46179910
:1051F00090476D1CB8F10001A8F10108F4DC5B4692
:105200002146179A0598ABE62D0000002B00000000
:10521000200000002DE9F041044600251E461746F7
:10522000880404D405E039462020B0476D1C641E74
:10523000F9D52846BDE8F0812DE9F0410446002566
:105240001E469046C80301D5302700E02027880479
:1052500004D505E041463846B0476D1C641EF9D5BB
:105260002846BDE8F0810A68531C0B601070704737
:1052700010B50120FEF7B0F94FF4FA7000F0F4F920
:105280000120FEF7D9F94FF4FA7000F0EDF9002093
:10529000FEF7BAF94FF4FA7000F0E6F90120FEF7D4
:1052A000E3F94FF4FA7000F0DFF90020FEF794F90B
:1052B000FA2000F0D9F90020FEF7D6F94FF4FA7081
:1052C00000F0D2F90120FEF79FF94FF4FA7000F0D8
:1052D000CBF90020FEF7B0F94FF4FA7000F0C4F9F2
:1052E00010BD10B50120FEF777F94FF4FA7000F009
:1052F000BBF90120FEF7A0F94FF4FA7000F0B4F901
:105300000020FEF781F94FF4FA7000F0ADF90120AA
:10531000FEF7AAF94FF4FA7000F0A6F90220FEF7A2
:10532000A3F94FF4FA7000F09FF90020FEF754F94A
:10533000FA2000F099F90020FEF796F94FF4FA7080
:1053400000F092F90120FEF75FF94FF4FA7000F0D7
:105350008BF90020FEF770F94FF4FA7000F084F931
:1053600010BD10B50120FEF737F94FF4FA7000F0C8
:105370007BF90120FEF760F94FF4FA7000F074F940
:105380000020FEF741F94FF4FA7000F06DF90120AA
:10539000FEF76AF94FF4FA7000F066F90220FEF7A2
:1053A00063F94FF4FA7000F05FF90320FEF75CF93F
:1053B0004FF4FA7000F058F90020FEF70DF9FA20CA
:1053C00000F052F90020FEF74FF94FF4FA7000F0A8
:1053D0004BF90120FEF718F94FF4FA7000F044F988
:1053E0000020FEF729F94FF4FA7000F03DF910BDE6
:1053F000014609B1086808B90020704719B1D1E920
:105400000120904201D30846F7E702E08868401C7B
:10541000886041B1D1E90120904204D28A680868CD
:10542000805C2028F2DDD1E90120904202D1886819
:10543000401E88600846E0E770B50446002522E07B
:105440002568A08900F4807020B9A06810B1A06818
:10545000FFF7F2FFA08900F4807028B9206918B125
:105460000A4A206951688847A08900F4007028B969
:10547000206A18B1054A206A516888470348416884
:10548000204688472C46002CDAD170BDFC0900204C
:1054900070B504460D4600222946204600F01AF950
:1054A00070BD70B5044628202168884705461DB1A7
:1054B00028212846FAF777FE284670BD10B5044625
:1054C00000221146204600F06BF810BD2DE9F04790
:1054D0008AB004460E46154698461C2103A8FAF7E2
:1054E00062FE002700202C490860486004B106B91C
:1054F00032E00394049600200590284A07CA07ABBF
:1055000007C32648FFF7CDFF074607B924E003A8E5
:1055100000F062FD8246FFF76BFF81464946384640
:1055200000F086FC00B917E0B8F1000F0BD003A81B
:10553000FFF75EFFDDE90410884203D20599039866
:10554000405C00B108E01DB105990398084428604B
:1055500038460AB0BDE8F08717B13846FFF76CFF50
:10556000C4B1019400200290DDE90410884202D207
:105570000598029004E0049810B10498401E02902F
:105580001DB1DDE90101084428600348DDE901128D
:1055900006C000BF0020DCE7F4090020FC09002061
:1055A0002DE9F04104460D46164614B90020BDE829
:1055B000F0812046FAF72AFE471C33462A46394630
:1055C0002046FFF783FFF2E770B504460D4604B1AD
:1055D0000DB9012070BDAC4201D10020FAE705E011
:1055E000207808B90020F5E7641C6D1C2078FAF7D4
:1055F000BBFD06462878FAF7B7FD8642F0D0207842
:10560000FAF7B2FD06462878FAF7AEFD301AE1E760
:105610000020034908818880C8808872C87270475A
:10562000AC2E002010B56FF00400FEF7E9F80A4830
:1056300000680A49B0FBF1F0094908700846007893
:1056400000EB4001C1EBC0104FF6FF7101EAC00052
:105650000449088010BD00000400002000127A00F8
:10566000D0090020D20900200146114A12884A437D
:105670004FF0E0235A6100229A611A46126942F003
:1056800001021A6100BF4FF0E022106900F0010230
:105690001AB100F48032002AF5D04FF0E0221269EE
:1056A00022F001024FF0E0231A6100229A61704754
:1056B000D209002000BF054A128802F04002002AE9
:1056C000F9D0C2B2014B1B1D1A807047003801404F
:1056D0002E2070472DE9F04105460E46174600245E
:1056E00005B116B90020BDE8F081AC685FB100E0FB
:1056F00024688CB1206A78B13046216AFAF78DFDB2
:105700000028F5D108E000E024682CB13046216A79
:10571000FFF75AFF0028F7D10CB1206A08B9002022
:10572000E1E72046DFE700002DE9F0410B3020F0F3
:105730000706104D19E02068B04215D3B0420AD9CF
:10574000871B201DD4F80480FAF714FDA019C0E9C6
:105750000078286004E060682860201DFAF70AFDE0
:10576000201D2660BDE8F081251D2C68002CE2D1AB
:105770000020F7E7300A00200024FDF79FFFFCF728
:1057800007F86420FBF74CFBFCF7FEFF01210C48F7
:10579000FEF7F4F913E000F085FC0020FBF7E0FCD5
:1057A000044614B12046FDF7FBFBFDF789FE0548D2
:1057B000007820B9FBF748FB012002490870EAE7AE
:1057C00000080040240A002070B506460024304638
:1057D000FFF774FE044624B930A0FFF759F8002003
:1057E00070BD32A12046FFF753FE057D012D06D086
:1057F000022D2AD0032D47D0042D47D145E02CA1FE
:105800002046FFF745FE808A2B4988802BA1204641
:10581000FFF73EFE808A2849C88026A12046FFF770
:1058200037FE808A2449088126A12046FFF730FEF2
:10583000007D214988720846807AC8722348007822
:1058400010B901202149087021E021A12046FFF76D
:105850001FFE808A1849888018A12046FFF718FE8D
:10586000808A1549C88013A12046FFF711FE808A5F
:10587000114908811548007810B9012013490870B2
:1058800000200D49887202E001E000E000BF00BF87
:105890002046FFF7D1FD0120A2E70000706172737E
:1058A00065206661696C2E0A00000000636D64006B
:1058B0006369747969640000AC2E002061726561CF
:1058C000000000007374617465000000942E0020D5
:1058D00063697479000000002DE9F04180460C46B0
:1058E00000250027E068B0F57A7F02D30020BDE8EC
:1058F000F081E068401CE060A1682068405C5B28A3
:1059000000D05FE0A068401CA0602046FFF770FD5B
:105910004CB1D4E90110884205D2A1682068405CEE
:105920005D2800D13FE01CB1D4E90110884203D3C7
:10593000A068401EA06045E0A068401EA06000BFB7
:1059400004F11000FFF7ADFD064606B93AE015B9BF
:105950003546374602E03E6077603746A068401C17
:10596000A0602046FFF744FD2146384600F060FA6B
:1059700000B927E02046FFF73BFD44B1D4E9011010
:10598000884204D2A1682068405C2C28D8D044B159
:10599000D4E90110884204D2A1682068405C5D28E7
:1059A00000D00FE000BFE068401EE06005B16F600E
:1059B0002020C8F80C00C8F80850A068401CA0605F
:1059C000012094E715B12846FFF736FD00208EE749
:1059D00002460023002100BF23E0505C302806DB94
:1059E000505C392803DC505C3038034415E0505CCF
:1059F000412806DB505C462803DC505C3738034402
:105A00000BE0505C612806DB505C662803DC505CD0
:105A10005738034401E000207047032900D21B01DE
:105A2000491C0429D9D31846F6E700002DE9F043B4
:105A300091B080460C4600BF00201090FFF748FE52
:105A4000814600250CB1206818B9002011B0BDE8CE
:105A5000F08300253CE0A16820680844405D3428BC
:105A600020D00ADCA0F12B0009282ED2DFE800F0BC
:105A7000202D212A2D1617181900382816D006DCDB
:105A8000352810D036280FD037281ED10DE0392800
:105A90000DD045280FD0652817D10BE000BF00BFFF
:105AA00000BF00BF00BF00BF00BF00BF00BF00BFFE
:105AB00000BF00BF00BFA16820680844405D0DF82A
:105AC000050003E00DF8059000E00AE000BF6D1C42
:105AD0003F2D05D224B1A068284461688842BAD31A
